:100000000C94DF130C9407140C9407140C9407142D
:100010000C9407140C9407140C9407140C940526E4
:100020000C9407140C9407140C9407140C940714E4
:100030000C9407140C9407140C9407140C940714D4
:100040000C9461260C9407140C9407140C94071458
:100050000C9407140C9407140C9407140C940714B4
:100060000C94AB260C940714000000001C00010047
:1000700000071F1C0AE31C000F0E1C06E4370016C5
:10008000221C03E2950013261C05E1F000151E1C3E
:1000900004E43F01151C1C04E68901060E1C0BE458
:1000A00094010A251C0CE3C3010A251C06E3F20196
:1000B00015131C04E42402171A1C03E76F02090E2F
:1000C0001C07FA7F0218051C02F18E0207061C0BA2
:1000D000FC940214261C04E0F302151F1C04E345E3
:1000E00003141D1C04E48E03151E1C03E3DD03151D
:1000F0001F1C04E32F04141C1C04E57504151F1CAD
:1001000004E3C704141F1C05E31505141E1C04E3B7
:100110006005141F1C04E3AE05141F1C05E3FC0559
:1001200007161C0BEC10060A1C1C06EC33061815EF
:100130001C02E97206180E1C02ED9C0617161C0321
:10014000E9DC06141D1C05E5250713241C04E47BCB
:10015000071D1B1CFFE6DD071A1B1C01E6350819ED
:100160001D1C02E59008191B1C01E6E508191B1C63
:1001700001E63A09191B1C01E68F09191D1C02E54D
:10018000EA091A1B1C01E6420A131B1C05E6830A36
:10019000191C1C03E6DB0A1B1B1C01E6370B191B91
:1001A0001C02E68C0B1F1B1CFFE6F50B1C1B1C0026
:1001B000E6540C1B1D1C01E5B60C181B1C01E607C0
:1001C0000D1B231C01E57E0D1C1B1C00E6DD0D161E
:1001D0001D1C03E52D0E191B1C02E6820E1C1C1CA7
:1001E00000E6E40E1E1B1CFFE64A0F1C1B1C00E66B
:1001F000A90F1A1B1C01E601101A1B1C01E659105D
:10020000151B1C04E6A0100A251C0CE3CF101426B5
:100210001C04E02E110A251C06E35D11140F1C04BA
:10022000E383111C051C0005951109081C08E29EBA
:100230001118171C02EBE3111B1F1C00E34C1218D2
:10024000171C03EB91121A1F1C02E3F61218171C5D
:1002500002EB3B13161E1C04E38E13191F1C02EB4A
:10026000EF131A1E1C01E35114151D1C04E49E1407
:1002700011261C05E4EF14191E1C02E34D15151E72
:100280001C04E39C151E161CFFEBEF1519161C0130
:10029000EB341619171C02EB7C161C1F1C00EBE933
:1002A000161C1F1C01EB561718161C03EB9817158C
:1002B000171C04EBD517171C1C01E6261819161C71
:1002C00001EC6B181C151C00ECB5181C151C00EC7F
:1002D000FF181A151C01EC44191A1E1C01ECA61972
:1002E00013151C05ECD8190E251C07E3191A052453
:1002F0001C0CE4301A0E251C08E3711A160A1C03A4
:10030000EF38FBFFFFFFFFFFFFFDF3E7CF9F3E7CD2
:10031000F9F3E38200000071F7FFEF9E00FC7EF826
:100320007DF0FBE1F7C3EF87DF0FBE1F381C70388D
:10033000E071C0E381C7038001C1C00F8F803E3EE2
:1003400000F8F803E3E00F8F807E3E01F0F807C766
:10035000C01F1F03FFFF9FFFFF7FFFFDFFFFF3FF96
:10036000FF81F1F007C7C01F1F007C7C1FFFFCFF4F
:10037000FFFBFFFFEFFFFF9FFFFC0F8F803E3E0064
:10038000F8F803E3E00F8F803E3E00F8F803E3E067
:100390000F8F803C3C0000E0003E0007C000F800EA
:1003A0001F001FFF07FFF1FFFE7FFFDFC1FBF01FF4
:1003B0007C01EF8039F8003FF803FFE03FFF03FFC7
:1003C000F00FFF001FE0007FC007F800FF801FF85C
:1003D00007FF81FBFFFF7FFFCFFFF1DFFC007C0009
:1003E0000F8001F0003E0007C000F8001F0001C0B0
:1003F000000F8000FF001FFC00F0E00F0780701C62
:100400000380E01C0700F07803C3801FFC007FC15D
:10041000F0F87F003FF00FFC03FF00FFC007E0F89B
:10042000381FE001FF800F1E00F0780701C0380E72
:1004300001C0700F0780387801FFC007F8000F80F7
:1004400000F8001FFC01FFE01FFF00FFF80FC700CE
:100450007C1003E0001F0000FC0003F0001F800080
:10046000FE000FF800FFC7CFFF3F7EFFFFE7FFBE94
:100470001FF9F07F8F83FC7C0FE3F07FCFFFFF7FBE
:10048000FFF9FFFFC7FFFC0FE000FDF7DF7DF7DF9F
:1004900038E38E38E00180F07C3F0FC7E1F8FC3E86
:1004A0000F87C1F07C1F0F83E0F83E0F83E0F83E1A
:1004B0000F81F07C1F07C0F83E0FC1F07E0F83F064
:1004C0007C1F03C0603C0F83F0FC1F83E0FC1F0710
:1004D000C1F83E0F83E07C1F07C1F07C1F07C1F00D
:1004E0007C1E0F83E0F87C1F0FC3E1F87C3F0F8375
:1004F000E0F00000700007C0003E0001F0000F8037
:10050000107C11F3E7DFFFFFFFFFFBFFFF87FFF02A
:1005100007FC003FE003FF803F7E01FBF01F8FC020
:10052000F83E0380E000380000F80001F00003E02E
:100530000007C0000F80001F00003E00007C00008C
:10054000F801FFFFF7FFFFFFFFFFFFFFFFDFFFFFE8
:10055000003E00007C0000F80001F00003E000070E
:10056000C0000F80001F00003E00007C00007000F3
:100570001F8F87C7C3E1E1F0F078383C1C0E0600FE
:100580007FFFFEFFFFFFFFFFFFFFFFFF7FFFFE7DFF
:10059000FFFFFFEF80000060000F0001F0001F0070
:1005A00001F0003E0003E0007C0007C000F8000FEF
:1005B0008001F0001F0003E0003E0007C0007C0047
:1005C0000FC000F8001F8001F0003F0003E0003E74
:1005D0000007C0007C000F8000F8001F0001F00041
:1005E0003E0003E0007C0007C000FC000F8000F824
:1005F000000F000001FC003FF803FFE03FFF83FF16
:10060000FE1F83F1F80FCF803E7C01F7C007FE008C
:100610003FF001FF800FFC007FE003FF001FF800A8
:10062000FFC007FE003FF001FF800FFC007DF007D8
:10063000CF803E7E03F1F83F0FFFF83FFF80FFF8C9
:1006400003FF8007F00001F8003F800FF801FF80F2
:100650007FF80FEF80FCF8070F8000F8000F800094
:10066000F8000F8000F8000F8000F8000F8000F8FD
:10067000000F8000F8000F8000F8000F8000F800E5
:100680000F803FFFE7FFFF7FFFF7FFFF3FFFE00126
:10069000FC003FF807FFF07FFFC7FFFF3F03FBF0C1
:1006A00007FF001FF800FB8007C0003E0003F000BA
:1006B0003F0003F8003F8003F8003F8003F8003F4D
:1006C0000007F0007F0007F0007F0007E00EFE004B
:1006D000FFFFFFFFFFFFFFFFFFFFFFFFFFFC03F830
:1006E00000FFF80FFFE0FFFF8FFFFE7E03F1C00F5A
:1006F000C0003E0001F0000F8000FC000FC00FFCA6
:1007000000FFC007FC003FF000FFC0007F0000FCBE
:100710000003F0000F80007C0003E0001F0001FFD9
:10072000C03FBFFFFDFFFFC7FFFC1FFFC01FF00062
:10073000003F8003F8007F8007F800FF801FF8016A
:10074000EF803EF803CF807CF80F8F80F0F81F0F0A
:1007500081E0F83E0F87C0F8780F8FFFFEFFFFFFA4
:10076000FFFFFFFFFFFFFE000F8007FE00FFF00FFF
:10077000FF00FFF007FE3FFFC1FFFF0FFFF87FFF05
:10078000C3FFFC1F0000F80007C0003E0001F0009E
:100790000FBF007FFF03FFFC1FFFF0FFFF83C0FEC2
:1007A0000001F0000FC0003E0001F0000F80007C4F
:1007B0000003E0003FF003F7E03FBFFFF9FFFFC792
:1007C000FFFC1FFF801FF000001FC00FFF01FFF0A4
:1007D0007FFF0FFFE1FF001FC003F0007E0007E076
:1007E000007C000F8FC0F9FF0FFFF8FFFFCFFFFC69
:1007F000FF0FEFE03EFC03FF801FF801FF801FF8B2
:1008000001F7C03F7E03F3F07E3FFFE1FFFC0FFFE7
:10081000807FF001FC00FFFFFFFFFFFFFFFFFFFFF6
:10082000FFFFFF001FF003E0003E0003E0007C003C
:1008300007C0007C000F8000F8000F8001F0001F4F
:100840000001F0003E0003E0003E0007C0007C0015
:1008500007C000F8000F8000F8000F0000F000064D
:100860000001F800FFF01FFF83FFFC7FFFE7E07E41
:10087000FC03FF801FF801FF801FF801F7C03E7ED8
:1008800007E3FFFC0FFF00FFF01FFF83FFFC7F0F5C
:10089000E7C03EF801FF801FF801FF801FFC03F74F
:1008A000E07E7FFFE3FFFC1FFF80FFF003FC0003FF
:1008B000F800FFE01FFF83FFF87FFFC7E0FEFC03A7
:1008C000EF803EF801FF801FF801FF803FFC07F733
:1008D000E0FF7FFFF3FFFF1FFFF0FF9F03F1F0003A
:1008E0003F0003E0007E000FC001FC003F800FF0DE
:1008F0007FFE0FFFC0FFF80FFF003F80007DFFFF6E
:10090000FFEF8000000000000000007DFFFFFFEF10
:10091000800F87F1FC7F1FC3E00000000000000093
:10092000000000003F1F87E1F0FC3E0F03C1E078AC
:100930001C07018000000400001E00007F0001FE73
:100940000007FC001FF0007FC001FF0007FE001F32
:10095000F8007FE000FFE0001FF80007FE0001FF45
:1009600080007FE0001FF80007FC0001FE00007F10
:1009700000001E7FFFFEFFFFFFFFFFFFFFFFFF7F67
:10098000FFFE0000000000000000000000007FFFEC
:10099000FEFFFFFFFFFFFFFFFFFF7FFFFE000001E5
:1009A000E00003F00007F80007FC0003FE0001FF71
:1009B0000000FF80007FC0007FE0003FF0003FF0BC
:1009C00001FF000FF8007FC003FE001FF000FF8052
:1009D00003FC0007E0000F00000000000003F80126
:1009E000FFF0FFFF8FFFFCFFFFEFC07EF803FF80EB
:1009F0001F7001F0001F0003F0007E003FE00FFCBD
:100A000001FF000FC000F0000F00006000000000B8
:100A1000000000000000001F0003F8003F8003F802
:100A2000003F8001F00001F000FF803FF80FFF83DE
:100A3000E0F878071E00F3800E7001DE003B803F77
:100A4000701FEE07FDC1FFB87E770F0EE3C1DC70AB
:100A50003B8E0771C0EE3C1DC3C3B87FF707FFE0B4
:100A60007FFC03FBC0003800070000F0000F0061AE
:100A7000F03E1FFFC3FFF01FFC01FC0007FF8000DA
:100A80007FFE0003FFF0001FFFC0007FFE00001F7D
:100A9000F00001F7C0000FBE00007DF80007C7C0DE
:100AA000003E3E0003E0F8001F07C000F03F000FCB
:100AB00080F8007FFFC007FFFF003FFFF803FFFF44
:100AC000E01FFFFF00F800F80F8003E1FF80FFDF69
:100AD000FE0FFFFFF07FFFFF83FFDFF80FFC7FFFBC
:100AE000C03FFFFC0FFFFFC3FFFFF87FFFFE07C003
:100AF0001FC1F001F07C007C1F001F07C00FC1F078
:100B000007E07FFFF01FFFF807FFFF01FFFFE07F17
:100B1000FFFC1F003F87C003F1F0007C7C001F1F1B
:100B20000007C7C003F7FFFFFBFFFFFEFFFFFF3F0C
:100B3000FFFF87FFFF00007F0000FFE701FFFFC10D
:100B4000FFFFE1FFFFF1FE07F8FC01FCFC007E7CEB
:100B5000001F7E000FBE00039F00000F800007C033
:100B60000003E00001F00000F800007C00003E00FF
:100B7000001F800007C00003F00039FC007C7F806C
:100B8000FF1FFFFF07FFFF81FFFF003FFF0007FC84
:100B9000007FFF007FFFF03FFFFC1FFFFF07FFFF0D
:100BA000C1F00FF0F801F87C007E3E001F1F000F1F
:100BB000CF8003E7C001F3E000F9F0007CF8003ECD
:100BC0007C001F3E000F9F0007CF8007E7C003E3B4
:100BD000E003F1F007F1FFFFF9FFFFF8FFFFF87FF7
:100BE000FFF01FFFE0007FFFFF7FFFFFBFFFFFDF82
:100BF000FFFFE7FFFFF0F800F87C007C3E0E3E1F91
:100C00000F9F0F87C707C3E003FFF001FFF800FF46
:100C1000FC007FFE003FFF001F0F800F87C387C1CE
:100C2000C3E3E001F1F000F8F8007DFFFFFFFFFFF4
:100C3000FFFFFFFFFFFFFFDFFFFFE07FFFFFFFFF83
:100C4000FFFFFFFFFFFFFFF7FFFFF8F8007C7C00CE
:100C50003E3E001F1F070F8F87C387C3E003FFF0CF
:100C600001FFF800FFFC007FFE003FFF001F0F8028
:100C70000F87C007C3E003E0E001F00000F80001C7
:100C8000FFF001FFFC00FFFE007FFF001FFF0000E0
:100C9000007F8E00FFF781FFFFC1FFFFE1FFFFF143
:100CA000FE03F8FC00FCFC003E7C001F7E00073EBB
:100CB00000001F00000F800007C00003E00001F0EB
:100CC0000FFEF80FFFFC07FFFE03FFFF00FFFFC052
:100CD00001F3F000F9FC007C7F80FE3FFFFF0FFF77
:100CE000FF83FFFF807FFF0007FC003FE1FF1FFC49
:100CF000FFE7FF3FF9FFCFFE3FE1FF07C00F81F0A5
:100D000003E07C00F81F003E07C00F81F003E07F86
:100D1000FFF81FFFFE07FFFF81FFFFE07FFFF81FC7
:100D2000003E07C00F81F003E07C00F81F003E0783
:100D3000C00F87FE1FFBFFCFFFFFF3FFFFFCFFF796
:100D4000FE1FF87FFFDFFFFFFFFFFFFFF7FFFC0342
:100D5000E0007C000F8001F0003E0007C000F800BA
:100D60001F0003E0007C000F8001F0003E0007C080
:100D700000F8001F0003E01FFFF7FFFFFFFFFFFF6A
:100D8000FDFFFF0000FFFF00FFFFC07FFFE03FFF10
:100D9000F00FFFF0000F800007C00003E00001F03B
:100DA0000000F800007C00003E00001F00000F80E3
:100DB0000007C0E003E0F801F07C00F83E007C1F73
:100DC000003E0F801F07C01F83F83F81FFFFC0FF59
:100DD000FFC03FFFC007FFC0007F00007FE0FF9F14
:100DE000FE3FFBFFC7FF7FF8FFE7FE0FF83E01F86D
:100DF00007C0FE00F83F801F0FE003E3F8007DFC12
:100E0000000FFF0001FFF0003FFF0007FFF000FEB2
:100E10007F001F87F003E07E007C07E00F807E01EB
:100E2000F00FC03E00F81FF81FF7FF81FFFFF03FF3
:100E3000FFFE07FDFF807F007FFC007FFF003FFF7C
:100E4000801FFFC007FFC0003E00001F00000F8092
:100E50000007C00003E00001F00000F800007C0083
:100E6000003E00001F00000F800E07C00F83E00748
:100E7000C1F003E0F801F07C00F83E007DFFFFFFC9
:100E8000FFFFFFFFFFFFFFFFFFDFFFFFE03F8003EC
:100E9000F8FF800FF9FF001FF3FF007FE3FE00FF64
:100EA00083FE03FE07FC07FC0FFC1FF81FF83FF052
:100EB0003FF07FE07DF1F7C0FBE3EF81F7EFDF0369
:100EC000E7DF3E07CFFE7C0F8FF8F81F1FF1F03EE3
:100ED0001FE3E07C3F87C0F83F0F81F0001F03E075
:100EE000003E1FF803FF7FF80FFFFFF01FFFFFE03A
:100EF0003FFDFF803FF07F007FEFF80FFFFFC0FF57
:100F0000FFFC0FFF7FE07FE1FF00F81FF00F81FF84
:100F100080F81FFC0F81FFC0F81F7E0F81F3F0F8EF
:100F20001F3F0F81F1F8F81F0FCF81F0FCF81F076A
:100F3000EF81F03FF81F03FF81F01FF81F00FF81D2
:100F4000F00FF87FE07F8FFF03F8FFF03F8FFF0186
:100F5000F87FE00F80003F80003FFC000FFFE003C0
:100F6000FFFE00FFFFE03FC1FE0FE00FE1F800FCD5
:100F70007E000FCF8000FBF0001FFC0001FF80000F
:100F80003FF00007FE0000FFC0001FF80003FF0055
:100F9000007FF0001FBE0003E7E000FC7E003F0F73
:100FA000E00FE0FF07F80FFFFE00FFFF800FFFE0FC
:100FB00000FFF80003F8007FFF80FFFFF0FFFFF85D
:100FC000FFFFFC7FFFFE1F00FE1F003F1F001F1FD3
:100FD000001F1F001F1F001F1F003F1F007E1FFF5D
:100FE000FE1FFFFC1FFFF81FFFF01FFF801F000008
:100FF0001F00001F00001F00007FFC00FFFE00FF1D
:10100000FE00FFFE007FFC00003F80003FFC000F61
:10101000FFE003FFFE00FFFFE03FC1FE0FE00FE136
:10102000F800FC7E000FCF8000FBF0001FFC0001E9
:10103000FF80003FF00007FE0000FFC0001FF80027
:1010400003FF8000FDF0001F3F0007E7F001F87F7D
:10105000007F07F83FC0FFFFF007FFFC007FFF00A5
:1010600007FFC0007FC0000F000003FF8780FFFF65
:10107000F83FFFFF07FFFFC0FFFFF00F01F8007F01
:10108000FF800FFFFF00FFFFF80FFFFFC07FFFFE95
:1010900000F807E00F803F00F801F00F801F00F814
:1010A00001F00F803F00F80FE00FFFFE00FFFFC0D0
:1010B0000FFFF000FFFE000FFFF000F83F800F81F0
:1010C000FC00F80FE00F807E00F803F07FF01FEFC8
:1010D000FF81FFFFF80FFFFF807F7FF007E001FC3B
:1010E000701FFDE0FFFF87FFFE3FFFF8FC0FE7E00A
:1010F0001F9F003E7C00F9F001C7F0000FF8003F91
:10110000FF007FFF00FFFF00FFFC001FF80007E06B
:10111000000FDC001FF8007FE001FFC00FFFC0FEE2
:10112000FFFFFBFFFFCFFFFE1CFFF000FE00FFFFF5
:10113000FFFFFFFFFFFFFFFFFFFFFFFFFFFFC1F00C
:101140007FE0F83FF07C1FF83E0FFC1F07FE0F8387
:10115000EE07C0E003E00001F00000F800007C00B2
:10116000003E00001F00000F800007C00003E000E9
:1011700001F0000FFF800FFFE007FFF003FFF80012
:10118000FFF8007FE07FEFFF0FFFFFF0FFFFFF0F93
:10119000FF7FE07FE1F000F81F000F81F000F81FF3
:1011A000000F81F000F81F000F81F000F81F000F02
:1011B00081F000F81F000F81F000F81F000F81F090
:1011C00000F81F000F81F000F81F801F80F801F069
:1011D0000FE07F007FFFE003FFFE001FFF8000FFA6
:1011E000F00003FC007FE01FFBFFC0FFFFFF03FFD9
:1011F000FFFC0FFF7FE01FF87C000F80F8007C03EE
:10120000E001F007C00F801F003E007E00F800F8EC
:1012100007C003F01F0007C0F8001F03E0007E1F97
:101220000000F87C0003F3F00007CF80001FBE0031
:10123000003FF00000FFC00003FE000007F80000C0
:101240001FE000003F000000FC00007FE07FEFFF98
:101250000FFFFFF0FFFFFF0FFF7FE07FE3E0003CA9
:101260003E0F83C3E1F83C3E1F87C3E1FC7C3E3F59
:10127000C7C1E3FC7C1F3FE7C1F7FE781F7FE78112
:10128000F79FF81FF9FF81FF9FF80FF9FF80FF0F0D
:10129000F80FF0FF80FF0FF00FE07F00FE07F00F68
:1012A000E07F00FC03F007C03F007F80FF3FF07F3E
:1012B000EFFC1FFBFF07FE7F80FF07E03F00FC0FF6
:1012C000801F87C003F3E000FFF8001FFC0003FE4F
:1012D00000007F00001FC00007F00003FE0001FFB8
:1012E000C000FCF8007E3F003F07E01F80FC07E0E5
:1012F0001F07FC0FFBFF87FFFFE1FFFFF87FF7FCF5
:101300000FF87F807FBFF03FFFFC0FFFFF03FF7FE1
:10131000807F87E01F80FC07C01F03E003E1F80027
:10132000FC7C001FBE0003FF80007FC0001FE000A8
:1013300003F800007C00001F000007C00001F0005F
:10134000007C00001F000007C0001FFF000FFFE02F
:1013500003FFF800FFFE001FFF007FFFF3FFFF9F6A
:10136000FFFCFFFFE7FFFF3E03F1F01F8F81F87CDA
:101370001F83E1F80E1F8001FC000FC000FC000F6E
:10138000C000FC000FE0707E07C7E03E7E01F7E082
:101390000FFF007FFFFFFFFFFFFFFFFFFFFFFFFFCC
:1013A000FEFFBFFFFFFFFFBE0F83E0F83E0F83E0AD
:1013B000F83E0F83E0F83E0F83E0F83E0F83E0F83D
:1013C0003E0F83E0F83E0F83E0FFBFFFFFFFFF808B
:1013D00060000F0000F8000F80007C0007C0007E56
:1013E0000003E0003F0001F0001F0000F8000F8044
:1013F000007C0007C0003E0003E0001F0001F00079
:101400000F8000F80007C0007C0007E0003E0003EA
:10141000F0001F0001F8000F8000F80007C0007CFA
:101420000003E0003E0001F0001F0000F0000F7F0D
:10143000FFFFFFFF7FC1F07C1F07C1F07C1F07C1CA
:10144000F07C1F07C1F07C1F07C1F07C1F07C1F0B3
:101450007C1F07C1F07C1F7FFFFFFFFF7FC00040A4
:1014600000060000F0001F8003FC007FE00FFF007B
:10147000FFF81F9F83F0FC7E07EFC03FF801FF805D
:101480000F700060FFFFFFFFFFFFFFFFFFFFFFFF89
:10149000FFFFFFFFFFF0E0783E0FC3F07C1E060168
:1014A000FF000FFFC01FFFE01FFFF00FFFF800015C
:1014B000F80000F80000F801FFF807FFF81FFFF838
:1014C0003FFFF87FFFF87F00F8FC00F8F800F8F81D
:1014D00003F8FC0FFEFFFFFF7FFFFF3FFFFF1FFE34
:1014E000FE07F0007F00001FE00003FC00007F808B
:1014F0000007F000003E000007C00000F800001FD9
:101500000FE003EFFF007FFFF80FFFFF81FFFFF801
:101510003FE07F07F003F0FC003E1F8007E3E000A0
:101520007C7C000F8F8001F1F0003E3E0007C7E099
:1015300001F8FC003E1FC00FCFFE07F3FFFFFE7F48
:10154000FFFF8FFFFFE0FE7FF00003F80000FF18B1
:1015500003FFFC0FFFFC1FFFFC3FFFFC3F81FC7EF5
:10156000007C7C007CFC003CF80038F80000F800AF
:1015700000F80000F80000FC00007C00067E001F60
:101580007F807F3FFFFF1FFFFE0FFFFC07FFF8007C
:10159000FFC00000FE00007F80001FE00007F80091
:1015A00000FE00000F800003E00000F800FE3E0097
:1015B000FFEF80FFFFE07FFFF83FFFFE1FE0FF87A8
:1015C000E00FE1F001F8FC007E3E000F8F8003E3A6
:1015D000E000F8F8003E3E000F8FC007E1F001F890
:1015E0007E00FE0FE07FE3FFFFFC7FFFFF0FFFFFAA
:1015F000C0FFEFE00FC00000FE0003FFC00FFFE0E0
:101600001FFFF03FFFF87F81FC7E007EFC003EF86C
:10161000003EFFFFFFFFFFFFFFFFFFFFFFFFFFFF9A
:10162000FFF80000FC00007E00007F807E3FFFFF8F
:101630001FFFFF0FFFFE07FFF800FF80003FE003E2
:10164000FFE01FFFC0FFFF07FFF81F80007C0001C5
:10165000F00007C001FFFF0FFFFE3FFFF8FFFFE1B3
:10166000FFFF007C0001F00007C0001F00007C00AD
:1016700001F00007C0001F00007C0001F00007C05F
:1016800001FFFF0FFFFE3FFFF8FFFFE1FFFF00003C
:10169000FC0003FFBF83FFFFE3FFFFF3FFFFFBFC43
:1016A0003FF9F807F0F801F8FC00FC7C003E3E0032
:1016B0001F1F000F8F8007C7C003E3F003F0F8017E
:1016C000F87E01FC3FC3FE0FFFFF03FFFF80FFFF1B
:1016D000C03FFBE007F1F00000F80000FC0000FE56
:1016E00000FFFE00FFFF007FFF003FFE000FFC0039
:1016F0007F00003FC0000FF00003FC00007F0000EF
:1017000007C00001F000007C00001F0FC007CFFCE5
:1017100001F7FF807FFFF01FFFFC07FC1F81FC0328
:10172000E07E00F81F003E07C00F81F003E07C0060
:10173000F81F003E07C00F81F003E07C00F81F0097
:101740003E1FF03FEFFE1FFFFF87FFFFE1FFDFF0CF
:101750003FE001F0000F80007C0003E0001F00006C
:10176000000000000000001FF801FFC00FFE007F16
:10177000F001FF80007C0003E0001F0000F800077C
:10178000C0003E0001F0000F80007C0003E0001F5D
:10179000007FFFF7FFFFFFFFFFFFFFF7FFFF0000E6
:1017A0007C003E001F000F8007C00000000000000A
:1017B0007FFFFFFFFFFFFFFFF7FFF8007C003E0009
:1017C0001F000F8007C003E001F000F8007C003E1E
:1017D000001F000F8007C003E001F000F8007C004C
:1017E0003E003F003FBFFFBFFF9FFFCFFF83FF00D3
:1017F0007F00007F80003FC0001FE00007F0000076
:10180000F800007C00003E00001F00000F87FC076E
:10181000C7FF03E3FF81F1FFC0F87FC07CFE003EFD
:10182000FE001FFE000FFE0007FE0003FF8001FF09
:10183000E000FFF8007CFE003E3F801F0FE03F818C
:10184000FFBFC1FFFFE0FFFFF07FFBF81FF81FF8AD
:1018500001FFC00FFE007FF001FF80007C0003E06D
:10186000001F0000F80007C0003E0001F0000F80DC
:10187000007C0003E0001F0000F80007C0003E00ED
:1018800001F0000F80007C0003E0001F0000F8035F
:10189000FFFFBFFFFFFFFFFFFFFFBFFFF8003C1F81
:1018A00000FDFCFF07FFFFFE1FFFFFF87FFFFFF0BB
:1018B000FF1F87C1F87E1F07C1F07C1F07C1F07CA6
:1018C0001F07C1F07C1F07C1F07C1F07C1F07C1F00
:1018D00007C1F07C1F07C1F07C1F07C1F1FE1F8705
:1018E000EFFC7F1FFFF1FC7FFFC7F1FDFE1F87E0CC
:1018F000001F801F9FF81FDFFE0FFFFF87FFFFC144
:10190000FF07F07F01F83F007C1F003E0F801F079C
:10191000C00F83E007C1F003E0F801F07C00F83E5F
:10192000007C1F003E3FE07FBFF87FFFFC3FFFFED3
:101930001FFBFE07F8007F0001FFF001FFFC03FF23
:10194000FF83FFFFC1FE0FF1FC01FCFC007EFC00E9
:101950001FFC0007FE0003FF0001FF8000FFC00026
:101960007FF0007EF8007E7F007F1FC0FF07FFFF33
:1019700003FFFF807FFF001FFF0001FC000007E066
:1019800003F9FFC07FBFFE07FFFFF87FFFFFC3FF24
:1019900083FC0FE00FE0FC007E0FC003F0F8001F97
:1019A0000F8001F0F8001F0F8001F0F8003F0FC01A
:1019B00003F0FE007E0FF81FE0FFFFFC0FFFFF802B
:1019C000FFFFF00F9FFC00F87F000F800000F80081
:1019D000000F800000F800007FF8000FFFC000FF3C
:1019E000FC000FFFC0007FF80000007E00003FF900
:1019F000FC0FFFDFE1FFFFFE3FFFFFE3F81FFC7F6F
:101A0000007F07C003F0FC003F0F8001F0F8001FCB
:101A10000F8001F0F8001F0FC001F0FC003F07E04D
:101A200007F07F81FF03FFFFF01FFFFF00FFFFF0C4
:101A300003FF9F000FE1F000001F000001F0000015
:101A40001F000001F00001FFE0003FFF0003FFF076
:101A5000003FFF0001FFE00001F03FC7FC7FCFFE29
:101A60007FDFFF7FFFFF3FFF0E07FC0007F8000747
:101A7000F00007E00007C00007C00007C00007C073
:101A80000007C00007C00007C0007FFFC0FFFFE0E5
:101A9000FFFFE0FFFFE07FFFC003FC607FFF87FFE9
:101AA000FC7FFFE7FFFF3F01F9F007CFC01C7FF08D
:101AB00003FFF80FFFF03FFFC03FFF000FFDC0071F
:101AC000FE001FF800FFF01FFFFFFDFFFFEFFFFE0E
:101AD0003FFFC007F8000700001F00003E00007C29
:101AE0000000F80001F0001FFFF87FFFF8FFFFF192
:101AF000FFFFE1FFFF807C0000F80001F00003E041
:101B00000007C0000F80001F00003E00007C0000A6
:101B1000F80001F00383F01F87FFFF07FFFE0FFFB0
:101B2000F807FFC003FC007F01FE7F81FF3FC0FF7D
:101B30009FE07FC7F01FE0F801F07C00F83E007CDA
:101B40001F003E0F801F07C00F83E007C1F003E0B6
:101B5000F801F07C01F83F01FC1FC1FF07FFFFC344
:101B6000FFFFE0FFF7F03FF3F003F0007FE07FEFCF
:101B7000FF0FFFFFF0FFFFFF0FFF7FE07FE0F801A7
:101B8000F00FC01F007C03E007E03E003E07C003EB
:101B9000F07C001F0F8001F8F8000F9F0000FDF09F
:101BA0000007FE00007FE00003FC00003FC00001D2
:101BB000FC00001F80007F801FEFFC03FFFFC03F81
:101BC000FFFC03FF7F801FE1F0F87C1F1F87C1F13E
:101BD000F8FC1F1FCF80FBFCF80FBFDF80FBFFF07E
:101BE0000FFFFF007FDFF007F9FF007F9FE007F0A6
:101BF000FE003F0FE003F07E003E07C003E03C0024
:101C00003FC0FF1FF87FE7FE1FF9FF87FE3FC0FFC1
:101C100003F87F007F3F800FFFC001FFE0003FE03F
:101C20000007F80007FF0003FFE001FFFE00FE1FB2
:101C3000C07F03F87FC0FFBFF87FFFFE1FFFFF8755
:101C4000FF7FC0FF807F807FBFF03FFFFC0FFFFF63
:101C500003FF7F807F8FC00781F003E07E01F00FDC
:101C6000807C03F03E007C0F800F87C003E1F00012
:101C70007CF8001FFE0003FF0000FFC0001FE00013
:101C800007F00000FC00003E00001F800007C000BD
:101C900003F00000F8001FFF800FFFF003FFFC00BF
:101CA000FFFF001FFF8000FFFFFFFFFFFFFFFFFFA1
:101CB000FFFFFFF03FBE0FC383F000FC003F000FAB
:101CC000C003F000FC003F000FC03BF00FFFFFFF20
:101CD000FFFFFFFFFFFFFFFFFE007803F01FC0FFC5
:101CE00007F81F807C01F007C01F007C01F007C0CF
:101CF0001F007C01F00F81FE0FF03F80FF01FE000E
:101D0000FC01F007C01F007C01F007C01F007C0130
:101D1000F807F80FF03FC07F007877FFFFFFFFFF65
:101D2000FFFFFFFFFFFFFFFFFFFFFFFFFFFFFFFEC4
:101D3000E07803F00FE03FC07F007E00F803E00F83
:101D4000803E00F803E00F803E00F803E007C01F6C
:101D5000E03FC07F03FC1FE0FC03E00F803E00F883
:101D600003E00F803E00F807E07F83FC0FF03F8028
:101D700078000780007F8003FF039FFE1FFFFCFFAA
:101D8000F3FFFF87FF9C0FFC000FE0001F00000027
:101D90000000003E5B4F5B3E3E6B4F6B3E1C3E7C4B
:101DA0003E1C183C7E3C181C577D571C1C5E7F5EF9
:101DB0001C00183C1800FFE7C3E7FF0018241800B8
:101DC000FFE7DBE7FF30483A060E2629792926404F
:101DD0007F050507407F05253F5A3CE73C5A7F3E7B
:101DE0001C1C08081C1C3E7F14227F22145F5F000D
:101DF0005F5F06097F017F006689956A60606060A9
:101E00006094A2FFA29408047E040810207E201093
:101E100008082A1C08081C2A08081E101010100C9C
:101E20001E0C1E0C30383E3830060E3E0E060000EA
:101E300000000000005F00000007000700147F148E
:101E40007F14242A7F2A12231308646236495620FD
:101E5000500008070300001C2241000041221C0022
:101E60002A1C7F1C2A08083E0808008070300008E1
:101E700008080808000060600020100804023E51B5
:101E800049453E00427F4000724949494621414947
:101E90004D331814127F1027454545393C4A4949AE
:101EA0003141211109073649494936464949291E18
:101EB0000000140000004034000000081422411407
:101EC00014141414004122140802015909063E4159
:101ED0005D594E7C1211127C7F494949363E414181
:101EE00041227F4141413E7F494949417F090909DA
:101EF000013E414151737F0808087F00417F410046
:101F00002040413F017F081422417F404040407FF4
:101F1000021C027F7F0408107F3E4141413E7F0941
:101F20000909063E4151215E7F0919294626494982
:101F3000493203017F01033F4040403F1F204020C2
:101F40001F3F4038403F63140814630304780403C0
:101F50006159494D43007F4141410204081020006E
:101F60004141417F040201020440404040400003DF
:101F700007080020545478407F28444438384444AB
:101F80004428384444287F385454541800087E09A3
:101F90000218A4A49C787F0804047800447D4000C3
:101FA0002040403D007F1028440000417F40007CDD
:101FB000047804787C080404783844444438FC18D5
:101FC00024241818242418FC7C08040408485454B9
:101FD000542404043F44243C4040207C1C204020E6
:101FE0001C3C4030403C44281028444C9090907C4D
:101FF0004464544C4400083641000000770000005F
:102000004136080002010204023C2623263C1EA1A0
:10201000A161123A4040207A3854545559215555FF
:1020200079412254547842215554784020545579AE
:10203000400C1E5272123955555559395454545941
:1020400039555454580000457C410002457D4200FA
:1020500001457C407D1211127DF0282528F07C542A
:102060005545002054547C547C0A097F4932494923
:1020700049323A4444443A324A4848303A4141218C
:102080007A3A42402078009DA0A07D3D4242423DE8
:102090003D4040403D3C24FF2424487E4943662B7C
:1020A0002FFC2F2BFF0929F620C0887E090320541E
:1020B0005479410000447D413048484A323840401C
:1020C000227A007A0A0A727D0D19317D2629292F7C
:1020D00028262929292630484D4020380808080894
:1020E00008080808382F10C8ACBA2F102834FA0096
:1020F000007B000008142A142222142A1408550018
:10210000550055AA55AA55AAFF55FF55FF000000D6
:10211000FF00101010FF00141414FF001010FF0037
:10212000FF1010F010F0141414FC001414F700FF4A
:102130000000FF00FF1414F404FC141417101F1007
:10214000101F101F1414141F00101010F0000000B6
:10215000001F101010101F10101010F010000000C1
:10216000FF101010101010101010FF10000000FFD2
:10217000140000FF00FF00001F10170000FC04F413
:1021800014141710171414F404F40000FF00F714CB
:10219000141414141414F700F71414141714101052
:1021A0001F101F141414F4141010F010F000001F6E
:1021B000101F0000001F14000000FC140000F010AD
:1021C000F01010FF10FF141414FF141010101F0053
:1021D000000000F010FFFFFFFFFFF0F0F0F0F0FF55
:1021E000FFFF0000000000FFFF0F0F0F0F0F38442C
:1021F000443844FC4A4A4A347E02020606027E0201
:102200007E0263554941633844443C04407E201EAD
:102210002006027E020299A5E7A5991C2A492A1CDC
:102220004C7201724C304A4D4D303048784830BCC9
:10223000625A463D3E494949007E0101017E2A2AF3
:102240002A2A2A44445F444440514A444040444A74
:1022500051400000FF0103E080FF000008086B6BA5
:10226000083612362436060F090F0600001818002B
:1022700000001010003040FF0101001F01011E008E
:10228000191D1712003C3C3C3C00000000000001FE
:1022900003070F1F3F7F0080C0E0F0F8FCFE000046
:1022A0000000240027002A00DB40A4A62EAF200057
:1022B000A1C8D300408DAED580A80000600000000A
:1022C0000000000000000000000000E0000000002E
:1022D00000000000000000000001E000000000001D
:1022E000000000000000000001F0000000000000FD
:1022F0000000000000000003F000000000000000EB
:1023000000000000000007F00000000000000000D6
:10231000000000000007F8000000000000000000BE
:10232000000000000FF800000003C0007E00000164
:10233000E0007F0FF800000003C000FE000001E095
:1023400000FFEFF800000003C000FE000001E00005
:10235000FFFFF800000003C000F00000000F007F46
:10236000FE7FC0000003C000F00000000F003FFE31
:102370007FF83FF1FBCFFCFEF3BC3DEFE01FFE7F9B
:10238000FF7FFBFFDFFEFEFFBC3DEFE01FC6FFFF50
:102390007FFBFFDFFEFEFFBC3DEFE00FE3C7FE78F3
:1023A0007BC3DE1EF0FFBC3DEF0007FF87FC787BA0
:1023B000C3DE1EF0F83C3DEF0001FFFFF0007BC3E1
:1023C000C01EF0F03C3DEF0001F37FE03FFBC3CFC8
:1023D000FEF0F03C3DEF0003E33F807FFBC3DFFEF8
:1023E000F0F03C3DEF0007E73C00787BC3DE1EF0D9
:1023F000F03C3DEF0007FFBE00787BC3DE1EF0F02F
:102400003C3DEF0007FFFE00787BC3DE1EF0F03C92
:102410003DEF000FFFFE007FFBFFDFFEF0F03FFD12
:10242000EFE00FFFFF007FFBFFDFFEF0F03FFDEF6F
:10243000E00FF9FF003E79F9CF9EF0F01F3DE7E095
:102440001FF1FF0000000000000000000000001F5E
:1024500080FF007FFFFFFFFFFFFFFFFFFFE01C008B
:102460007F007FFFFFFFFEB46D888D18E000001F26
:10247000007FFFFFFFFE95AD7DB577E000000F0008
:102480007FFFFFFFFEA5AD9D8D19E0000006007FD8
:10249000FFFFFFFEB5ADEDB57EE0000000000001DE
:1024A0008000000000000000000003800000000029
:1024B000000000000007C000000000000000000055
:1024C00007C00000000000000000000FC000000076
:1024D0000000000000001FE00000000000000000FD
:1024E000001FE00000000000000000003FE00000CE
:1024F000000000000000003FF000000000000000AD
:1025000000007FF0000000000000001FF87FF000D6
:102510000000000000003FFE7FF00000000000000F
:10252000003FFF7FF0000000000000001FFFFBE005
:10253000000000000000000FFFF9FFC000000000D5
:1025400000000FFFF9FFF800000000000007FFF196
:10255000FFFF00000000000003FC73FFFF8000008D
:1025600000000001FE3FFFFF80000000000000FFB0
:102570001E0FFF000000000000007FFE1FFC000097
:1025800000000000003FFFFFF80000000000000016
:102590000FDFFFE0000000000000001F19FFC00077
:1025A0000000000000003F3CFF00000000000000B1
:1025B000007E7CF800000000000000007FFE7C0030
:1025C00000000000000000FFFFFC00000000000011
:1025D0000000FFFFFE0000000000000000FFFFFE03
:1025E0000000000000000001FFEFFE0000000000FE
:1025F000000001FFCFFE0000000000000003FF0705
:10260000FE0000000000000003FC07FE00000000C8
:1026100000000003F003FE00000000000000018045
:1026200000FE000000000000000000007E0000002E
:10263000000000000000003E00000000000000005C
:1026400000000C000000000000078000FC000003F8
:10265000C0000000078001FC000003C0000000076C
:102660008001FC000003C0000000078001E00000C2
:10267000001E000000078001E00000001E007FE354
:10268000F79FF9FDE7787BDFC0FFF7FFBFFDFDFF98
:10269000787BDFC0FFF7FFBFFDFDFF787BDFC0F079
:1026A000F787BC3DE1FF787BDE00F0F787BC3DE1BA
:1026B000F0787BDE0000F787803DE1E0787BDE008C
:1026C0007FF7879FFDE1E0787BDE00FFF787BFFDA6
:1026D000E1E0787BDE00F0F787BC3DE1E0787BDE6F
:1026E00000F0F787BC3DE1E0787BDE00F0F787BCC7
:1026F0003DE1E0787BDE00FFF7FFBFFDE1E07FFB1F
:10270000DFC0FFF7FFBFFDE1E07FFBDFC07CF3F33D
:102710009F3DE1E03E7BCFC00000000000000000D4
:10272000000000FFFFFFFFFFFFFFFFFFFFC0FFFFF5
:10273000FFFFFD68DB111A31C0FFFFFFFFFD2B5AC1
:10274000FB6AEFC0FFFFFFFFFD4B5B3B1A33C0FF8F
:10275000FFFFFFFD6B5BDB6AFDC00103680020002B
:102760007E002F000000002300260029000000004A
:102770000800020100000304070000000000000040
:10278000000102040810204080010204081020010A
:10279000020408102000000000250028002B00047F
:1027A00004040404040404020202020202030303F8
:1027B000030303022200FF210000CA278B2C1124EF
:1027C0001FBECFEFD8E0DEBFCDBF22E0A8E4B1E06E
:1027D00001C01D92A737B207E1F711E0A0E0B1E018
:1027E000EAE2F2E602C005900D92A834B107D9F7EB
:1027F00013E1CEEDD3E104C02197FE010E94042F26
:10280000CD3DD107C9F70E942E280C9408310C94B5
:102810000000089508950895AF92BF92CF92DF927D
:10282000EF92FF920F931F93CF93DF936C017B0185
:102830008B01040F151FEB015E01AE18BF08C01716
:10284000D10759F06991D601ED91FC910190F08189
:10285000E02DC6010995892B79F7C501DF91CF914C
:102860001F910F91FF90EF90DF90CF90BF90AF90AE
:102870000895833081F028F4813099F08230A9F0F6
:1028800008958730A9F08830C9F08430B1F4809180
:1028900080008F7D03C0809180008F7780938000BF
:1028A000089584B58F7784BD089584B58F7DFBCF5F
:1028B0008091B0008F778093B00008958091B00030
:1028C0008F7DF9CF1F93CF93DF93282F30E0F9014D
:1028D000E359F84D8491F901EF57F84DD491F9017E
:1028E000E156F84DC491CC23A9F0162F81110E9416
:1028F0003914EC2FF0E0EE0FFF1FEB56F84DA591C9
:10290000B4918FB7F894EC91111108C0D095DE23E3
:10291000DC938FBFDF91CF911F910895DE2BF8CF0D
:102920009091020189130BC0E3EBF7E2E4919FEF72
:1029300090930201E13049F028F0E23061F060E06C
:102940000C94621410926E00FACF90916F009D7FEC
:1029500090936F00F4CF909170009D7F90937000E2
:1029600091E09093B0009091B100987F9460909323
:10297000B1001092B300E3CFCF93DF9390E0FC015E
:10298000EF57F84D24918156984DFC01849188238E
:10299000D1F090E0880F991FFC01E256FD4DA59102
:1029A000B491FC01EB56F84DC591D49161110EC064
:1029B0009FB7F8948C91E22FE0958E238C93288119
:1029C000E223E8839FBFDF91CF9108958FB7F894FA
:1029D000EC91E22BEC938FBFF6CF4F925F926F9208
:1029E0007F928F929F92AF92BF92CF92DF92EF929F
:1029F000FF920F931F93CF93DF9300D000D01F92CD
:102A0000CDB7DEB78C012A013B01809102018330F2
:102A1000C9F08F3F09F47FC00F900F900F900F9077
:102A20000F90DF91CF911F910F91FF90EF90DF906A
:102A3000CF90BF90AF909F908F907F906F905F905E
:102A40004F900895E3EBF7E284918D8387FDE4CF07
:102A500061E083E00E94BC148D81882321F09D8178
:102A6000923009F05CC14801B12CA12C60E072E108
:102A70008AE790E0A50198010E94E52E29833A8318
:102A80004B835C8369017A0181E0C81AD108E108AF
:102A9000F1089FEFC916D104E104F10409F00CF428
:102AA00013C160E472E48FE090E0A50198010E94F8
:102AB000E52E69017A0181E0C81AD108E108F10820
:102AC0009D81923009F098C08FEFC816D104E104BF
:102AD000F10409F00CF4DDC160E970ED83E090E0F1
:102AE000A50198010E94E52E69017A0191E0C91AB9
:102AF000D108E108F1088FEFC816D104E104F10410
:102B000011F00CF0A3C183E09091B100987F892B64
:102B10008093B100E1C083E080930201E3EBF7E230
:102B200094919D839F3F09F477CF913029F158F01C
:102B3000923009F43FC08D8187FD6ECF61E083E064
:102B40000E94BC148CCF14BC15BC84B5826084BDBB
:102B500085B5816085BDE2EAF7E2E491F0E0EE0F31
:102B6000FF1FEB56F84D85919491E4E8F7E2E4916C
:102B7000E09312021D826CCF1092800010928100AF
:102B800080918100886080938100809181008160C4
:102B900080938100E2EAF7E2E491F0E0EE0FFF1F9C
:102BA000EB56F84D85919491E4E8F7E2E491E093D7
:102BB00011024ECF1092B0001092B1008091B0007F
:102BC00082608093B0008091B10081608093B100F9
:102BD000E2EAF7E2E491F0E0EE0FFF1FEB56F84D6A
:102BE000859194919093100280930F02E4E8F7E2AC
:102BF000E491E0930E022CCF9FEFC916D104E104BB
:102C0000F10409F00CF489C068E478EE81E090E00A
:102C1000A50198010E94E52E69017A0181E0C81A98
:102C2000D108E108F1089D81992309F428C19FEF9B
:102C3000C916D104E104F10409F00CF41EC162E1EB
:102C40007AE780E090E0A50194010E94E52E6901F9
:102C50007A0181E0C81AD108E108F1089D81992321
:102C600009F4EBC08FEFC816D104E104F10411F0B0
:102C700008F0BFC086E048CF64E274EF80E090E0E7
:102C8000A50194010E94E52E69017A0181E0C81A2C
:102C9000D108E108F10885E09FEFC916D104E104ED
:102CA000F10409F008F430CF62E17AE780E090E0C7
:102CB000A50194010E94E52E69017A0191E0C91AEB
:102CC000D108E108F108CECF81E09D8191111CCFA0
:102CD00095B5987F892B85BD2FEF3FEFA901411452
:102CE00051046104710409F043C09D81913009F4DD
:102CF0005EC0923009F46DC091118ECEC7BC209396
:102D00001B0230931C0240931D0250931E028091BF
:102D10006E00826080936E007FCE82E0D6CFB12CB1
:102D2000A12C60E072E18AE790E0A50198010E9481
:102D3000E52E69017A0181E0C81AD108E108F1089D
:102D4000C114D10491E0E906F10404F591E08D810C
:102D5000813011F680918100887F892B80938100DA
:102D60002FEF3FEFA9014114510461047104F9F000
:102D7000D801AA0FBB1FA30192010E94CA2D28EE01
:102D800033E040E050E00E94C32EAFCF68E478EE1D
:102D900081E090E0A50198010E94E52E69017A0189
:102DA00081E0C81AD108E108F10893E0D0CFD092B1
:102DB0008900C09288002093170230931802409334
:102DC000190250931A0280916F00826080936F0005
:102DD00023CEC092B3002093130230931402409389
:102DE00015025093160280917000826080937000EB
:102DF00013CEC980DA80EB80FC809AE0F594E794EA
:102E0000D794C7949A95D1F791E0C91AD108E108EF
:102E1000F10887E079CEC980DA80EB80FC808AE017
:102E2000F594E794D794C7948A95D1F791E0C91A9D
:102E3000D108E108F10885E04BCF8FEFC816D10427
:102E4000E104F10409F038F784E042CF68E478EE59
:102E500081E090E0A50198010E94E52E69017A01C8
:102E600091E0C91AD108E108F1088FEFC816D10422
:102E7000E104F10411F00CF0FFCE84E045CE8FEFB9
:102E8000C816D104E104F10411F00CF0D8CE83E0AF
:102E90001FCF82E039CE3FB7F8948091FD01909129
:102EA000FE01A091FF01B091000226B5A89B05C0CC
:102EB0002F3F19F00196A11DB11D3FBFBA2FA92FB9
:102EC000982F8827BC01CD01620F711D811D911DB6
:102ED00042E0660F771F881F991F4A95D1F7089522
:102EE0008F929F92AF92BF92CF92DF92EF92FF921A
:102EF0006B017C010E944B174B015C01C114D10492
:102F0000E104F104B9F00E944B17681979098A09A4
:102F10009B09683E73408105910580F321E0C21A48
:102F2000D108E108F10888EE880E83E0981EA11C04
:102F3000B11CE4CFFF90EF90DF90CF90BF90AF90A7
:102F40009F908F9008952FB7F8946091F901709138
:102F5000FA018091FB019091FC012FBF0895EF923F
:102F6000FF920F931F93CF93DF93EC01EC80FD80D2
:102F70006E157F050CF070C057FF04C0240F351F7D
:102F800050E040E08E819F81FA01E20FF31F8E171F
:102F90009F071CF49C01241B350B121613060CF022
:102FA0005BC0922F842F8695869586958E9DD00145
:102FB0008F9DB00D11246A0F7B1FAF8DB8A1A60F96
:102FC000B71F477049F188E0841B482F682F70E0D5
:102FD000FB01EA56FD4DE491281708F063C0621B1F
:102FE00071092FEF30E002C0359527956A95E2F719
:102FF000E2230130110539F0B0F10230110561F51D
:103000008C91E82702C08C91E82BEC93941720F167
:103010002C813D81A20FB31FE92FE41BE83078F02B
:103020000230110521F58E2F9C9190959C932C8157
:103030003D81A20FB31F88508830B0F7E770EE23B0
:1030400059F0F0E0E257FD4DE49101301105F9F03F
:1030500010F10230110519F1DF91CF911F910F91FD
:10306000FF90EF900895E0958C91E823CECF81E01A
:103070000115110509F480E081959E2F8C932C8118
:103080003D81A20FB31F98509830C0F7D7CF8C91D5
:10309000E82BEC93E1CFE0958C91E823FACF8C916B
:1030A000E827F7CF0130110509F4ADCFE0F2023087
:1030B000110509F4A5CFAE0DBF1DAECF0F931F9321
:1030C000CF93DF9377FF04C0260F371F70E060E0D7
:1030D000DC011496CD91DC91FB01E20FF31FCE17BA
:1030E000DF071CF49E01261B370B121613064CF546
:1030F000FA0157FD3796A3E0F595E795AA95E1F714
:10310000EC9FD001ED9FB00DFC9FB00D11246A0F14
:103110007B1FDC015F96ED91FC91E60FF71F477076
:10312000552781E090E001C0880F4A95EAF7482FC3
:103130000130110559F0A8F02E0F3F1F0230110584
:10314000E1F0DF91CF911F910F9108952E0F3F1F56
:10315000E217F307B1F38191DF011197842B8C9370
:10316000F7CF80952E0F3F1FE217F30751F3919190
:10317000DF01119798239C93F7CFE217F30709F328
:103180008191DF01119784278C93F7CF0F931F93C1
:10319000FA01DC0156964C9156974230E9F04330E3
:1031A000A1F1413061F514964D915C91DA01AE1BAD
:1031B000BF0BFD01E21BF30B77FD0BC0DC01169684
:1031C0004D915C916417750724F4AB01BF010E9417
:1031D0005E181F910F91089514964D915C91DA013C
:1031E000A61BB70BBD0161507109DC0116964D910C
:1031F0005C91DA01AE1BBF0BFD01E21BF30B77FD07
:10320000E8CFAF010E94AF17E4CF16964D915C91C5
:10321000DA01A61BB70BBD0161507109CDCF0F9329
:103220001F93FA01DC0156964C9156974230A9F053
:10323000433091F1413019F514964D915C91DA01CA
:10324000AE1BBF0BFD013197F7FD04C0AB01BF0101
:103250000E94AF171F910F91089514964D915C91A4
:10326000DA01A61BB70BBD01DC0116964D915C91EE
:10327000DA01AE1BBF0BFD013197621B730BF7FD2B
:10328000E9CFDC0116964D915C91E417F50714F730
:10329000AF010E945E18DECF16964D915C91DA0167
:1032A000A61BB70BBD01621B730BCECFFC0177FDD4
:1032B00064C080859185681779070CF05EC057FD62
:1032C0005CC082859385481759070CF056C08689E3
:1032D0008230B1F0833029F1813041F484819581CD
:1032E000841B950BAB01BC01615071092130310584
:1032F00009F108F443C02230310509F463C0089590
:1033000084819581DC01A61BB70BBD016150710959
:1033100086819781DC01A41BB50BAD014150510999
:10332000E5CF86819781861B970BBA01AC0141508E
:103330005109DCCFCA0157FD0796A3E09595879503
:10334000AA95E1F7A481B5818A9F90018B9F300DEA
:103350009A9F300D1124620F731F078CF0A1E02D8E
:10336000E60FF71F4770552721E030E001C0220F1C
:103370004A95EAF78081822B80830895CA0157FD20
:10338000079633E0959587953A95E1F7A481B58145
:103390008A9F90018B9F300D9A9F300D1124620FF0
:1033A000731F078CF0A1E02DE60FF71F477055271C
:1033B00081E090E001C0880F4A95EAF780959081FE
:1033C0008923DACFCA0157FD079623E095958795A3
:1033D0002A95E1F7A481B5818A9F90018B9F300DDA
:1033E0009A9F300D1124620F731F078CF0A1E02DFE
:1033F000E60FF71F4770552721E030E001C0220F8C
:103400004A95EAF780818227B7CF08958EBD0000E4
:103410000DB407FEFDCF8EB508958CBD9DBD0895FA
:103420000895FC016370668B8481958126813781C4
:10343000613039F0633029F09187808733872287A4
:103440000895318720879387828708952F923F922E
:103450004F925F926F927F928F929F92AF92BF92A4
:10346000CF92DF92EF92FF920F931F93CF93DF9350
:10347000CDB7DEB76A970FB6F894DEBF0FBECDBFEB
:103480009A8F898F7A8369834A01D22E18870F8396
:103490003701BC2CDC0159962D913C915A9721158E
:1034A000310509F015C118968D919C9119976817EF
:1034B00079070CF0D7C11A968D919C91481759073E
:1034C0000CF0D0C14C2C512CB6E0CB9E600D711D80
:1034D00011247C876B87161617060CF0C3C1EA2DE2
:1034E000F0E0FA87E98793E0EE0FFF1F9A95E1F786
:1034F000F88BEF87CF01840F951F181619060CF073
:10350000B1C1A98DBA8D58968C91811104C0BFEAC2
:10351000BD1508F4D394A98DBA8DED91FC91119746
:103520000284F385E02DCD010995B5E0DB9EC00155
:103530001124E981FA81FC83EB83312C212C9C013D
:103540002257324E388F2F8B4A2D50E05E8B4D8B99
:10355000EF89F88DE20DF31D44919E828D82D12C6E
:10356000C12C69817A81620D731D7A8B698B842FDE
:1035700090E09C8B8B8BE98DFA8DA081B18140FF0F
:1035800082C0F1E0BF126FC0AF126DC01C96ED910A
:10359000FC912F813885A4014C0D5D1D69897A89C4
:1035A000898D9A8D0995EB89FC89F595E7954E2FC4
:1035B0005FEFC51AD50A6D817E818D899E89680F5E
:1035C000791F7E836D8398E0C916D10481F6AFEF31
:1035D0002A1A3A0AEB81FC81E40DF51DFC83EB838A
:1035E000F5E02F16310409F0B3CF2F813885261569
:1035F0003705B9F0A98DBA8DED91FC91B1E0BB1200
:1036000057C0AB1255C069817A816B5F7F4F0088CC
:10361000F189E02D830128E030E0A401898D9A8DA5
:103620000995A98DBA8DED91FC9111970688F789BE
:10363000E02DCD016A960FB6F894DEBF0FBECDBF68
:10364000DF91CF911F910F91FF90EF90DF90CF907E
:10365000BF90AF909F908F907F906F905F904F90B2
:103660003F902F9009941E96ED91FC91EF80F88485
:1036700009851A8592014D815E816B817C81898DDE
:103680009A8D099590CF2F8138852615370509F435
:103690008ACF31E0B31207C0A31205C01C96ED918A
:1036A000FC91930178CF1E96ED91FC917301E0CFD0
:1036B0006B857C85641975090684F785E02D730197
:1036C0000F8518899201A401898D9A8D0995A9CF3A
:1036D000F90134969491329745915491D91AB7E0F3
:1036E000DB9E400D511D1124F901259134913C8B35
:1036F0002B8BFA0125903490FA0132967490319612
:103700003491398B329664903196449041E04C1557
:1037100018F04A1508F07FC0662D062C000C770BB8
:103720007C836B83842D042C000C990B9E838D83EA
:10373000A98DBA8DED91FC9111970284F385E02D4E
:10374000CD010995512CD12CC12CEA2DF0E0FA873E
:10375000E9872B2D30E03C872B87A401440D511DB8
:1037600047FC5A95588F4F8B69817A81660D711D80
:1037700067FC7A957E876D877989C71608F051CFE7
:103780002C2D30E04D815E81420F531FA985BA85F3
:103790004A9FC0014B9F900D5A9F900D1124FC0130
:1037A000E80DF91DF88BEF87852D612C4F89588D19
:1037B000420F531F5E8B4D8B671408F050C044249A
:1037C0004394480E877041F4C1010196EB89FC894E
:1037D000E20DF31DD4901C01D7FE19C0A98DBA8D3E
:1037E000ED91FC91662D70E0B1E0BB1219C0AB12F7
:1037F00017C02D853E85620F731F0484F585E02D6B
:103800002F8138854D895E89898D9A8D0995DD0CCA
:103810006394842DD1CF1E821D821C821B8288CF8F
:103820004B815C81640F751FAB85BC856A9FC001AD
:103830006B9F900D7A9F900D112469817A81680F9A
:10384000791F0684F785E02DEF80F88409851A85B5
:103850009D014F855889898D9A8D0995D8CF570C30
:10386000C3948ACF6A960FB6F894DEBF0FBECDBF61
:10387000DF91CF911F910F91FF90EF90DF90CF904C
:10388000BF90AF909F908F907F906F905F904F9080
:103890003F902F9008958F929F92AF92CF92EF9288
:1038A000FF920F931F93CF93DF93EC01262F898D07
:1038B0009A8D009709F051C06A30D1F41D861C869C
:1038C0008D8948E0849F900111248E859F85820F09
:1038D000931F9F878E8781E090E0DF91CF911F91AA
:1038E0000F91FF90EF90CF90AF909F908F900895A1
:1038F0006D3089F3CC88AD888F898823C1F08C85A1
:103900009D8536E0C39E800D911D11244885598503
:103910004817590764F44E855F851D861C8638E07C
:10392000A39EC0011124840F951F9F878E87EA886C
:10393000FB88088919894E855F856C857D85CE0158
:103940000E94261A2C898C859D8546E0249F800D37
:10395000911D11249D878C87BECF6A3069F41D8626
:103960001C86FC013896E4912D898E859F85E29F07
:10397000800D911D1124ADCF6D3009F4ACCFFC0149
:1039800034963491631708F4A6CF3296E491E61783
:1039900008F4A1CFFC01329685909490462F431BEA
:1039A000342F47E0349F800C911C1124F40132968F
:1039B00034913196E4913323A9F1EE2399F1CC8827
:1039C000F4013596E491AD884F89442301F10E2E20
:1039D000000CFF0BE30FF11DCE9EA001CF9E500DFA
:1039E00011246C857D85460F571F6885798564177E
:1039F00075076CF44E855F851D861C86FC01389624
:103A0000E491AE9E400D511D11245F874E87EA88D8
:103A1000FB88088919894E855F856C857D85CE0177
:103A20000E94261AF4013496E4912C898C859D8598
:103A3000E29F800D911D11248DCF6F927F928F9206
:103A40009F92AF92BF92CF92DF92EF92FF920F932D
:103A50001F93CF93DF93EC016B015A0139014801A9
:103A6000E881F9810284F385E02D0995E881F981E7
:103A70000288F389E02D87019301A501B601CE01EB
:103A80000995A501480D591D41505109E881F98159
:103A90000288F389E02D9301B601CE010995E881F2
:103AA000F9810088F189E02D9401A501B601CE01CC
:103AB0000995C60CD71CB60161507109E881F981DE
:103AC0000088F189E02D9401A501CE010995E881D6
:103AD000F9810688F789E02DCE01DF91CF911F9102
:103AE0000F91FF90EF90DF90CF90BF90AF909F909D
:103AF0008F907F906F9009946F927F928F929F9298
:103B0000AF92BF92CF92DF92EF92FF920F931F93EB
:103B1000CF93DF935C01EB016A0149013801870112
:103B2000DC01ED91FC916217730719F564167506B7
:103B30002CF0962D872D3A01C92ED82E96012619E4
:103B400037092F5F3F4F048CF58DE02DA301BE0197
:103B5000C5010995DF91CF911F910F91FF90EF90D3
:103B6000DF90CF90BF90AF909F908F907F906F909D
:103B700008954615570591F42617370724F0892D27
:103B80004B01C22FD82F9E01281939092F5F3F4FB3
:103B9000068CF78DE02DA601B401DACF0284F385FF
:103BA000E02D0995D501ED91FC910488F589E02D72
:103BB00083019401A601BE01C5010995D501ED91CE
:103BC000FC910688F789E02DC501DF91CF911F9107
:103BD0000F91FF90EF90DF90CF90BF90AF909F90AC
:103BE0008F907F906F900994EF92FF920F931F93A5
:103BF000DC011A960D911C911B9718962D913C9102
:103C00001997ED91FC9100A0F1A1E02D7B0150E00E
:103C100040E070E060E009951F910F91FF90EF90F8
:103C200008954F925F926F927F928F929F92AF9280
:103C3000BF92CF92DF92EF92FF920F931F93CF9399
:103C4000DF936C012B015A0139014801DC01ED9130
:103C5000FC910284F385E02D0995E201640C751C4A
:103C6000D601ED91FC91C615D7055CF40088F18969
:103C7000E02D87019401A501BE01C6010995219699
:103C8000EFCF0688F789E02DC601DF91CF911F9114
:103C90000F91FF90EF90DF90CF90BF90AF909F90EB
:103CA0008F907F906F905F904F9009948F929F922A
:103CB000AF92BF92CF92DF92EF92FF920F931F933A
:103CC000CF93DF93EC015B014A016901E881F9813F
:103CD0000284F385E02D099595012C0D3D1D2150A1
:103CE0003109E881F9810488F589E02D78018401A2
:103CF000A401B501CE010995E881F9810688F7890B
:103D0000E02DCE01DF91CF911F910F91FF90EF90A9
:103D1000DF90CF90BF90AF909F908F9009948F923B
:103D20009F92AF92BF92CF92DF92EF92FF920F934A
:103D30001F93CF93DF93EC015B014A016901780186
:103D4000E881F9810284F385E02D0995C80CD91C1E
:103D5000860101501109E881F9810488F589E02D77
:103D60009501A401B501CE010995E881F981068884
:103D7000F789E02DCE01DF91CF911F910F91FF9038
:103D8000EF90DF90CF90BF90AF909F908F9009946D
:103D9000EF92FF920F931F93DC01ED91FC9100A035
:103DA000F1A1E02D09951F910F91FF90EF900895DB
:103DB0000F931F93DC01ED91FC91068CF78DE02DA4
:103DC00009951F910F9108950F931F93DC01ED91B9
:103DD000FC91048CF58DE02D09951F910F910895AC
:103DE000DC01ED91FC910084F185E02D09943F9276
:103DF0004F925F926F927F928F929F92AF92BF92FB
:103E0000CF92DF92EF92FF920F931F93CF93DF93A6
:103E10005C017B014A016901390187E0680E711C70
:103E200093E0759467949A95E1F72B01400E511E2B
:103E300010E000E0312CD0E0C0E0CE01877099277F
:103E4000330C892B59F4FE0183E0F595E7958A95AB
:103E5000E1F7E00FF11FE80DF91D349037FE0AC0BD
:103E600021E030E0A701B5016C0F7D1F8FE292E0E9
:103E70000E94F01E2196CC16DD06F9F68FEFE81AA7
:103E8000F80A060D171DE414F504A9F6DF91CF9189
:103E90001F910F91FF90EF90DF90CF90BF90AF9068
:103EA0009F908F907F906F905F904F903F9008957C
:103EB0002F923F924F925F926F927F928F929F923A
:103EC000AF92BF92CF92DF92EF92FF920F931F9328
:103ED000CF93DF9300D000D000D0CDB7DEB73C0148
:103EE0006A013E832D83FC82EB825801A41AB50A35
:103EF000B7FE03C0B194A194B1088D809E80861A4C
:103F0000970A97FE03C09194819491088A149B04A8
:103F10005CF0902F812F0D811E819D838E839C2DBF
:103F20008D2D6B01692F782F0C151D055CF09D817F
:103F30008E817E836D83692F782F902F812F86014C
:103F4000C92ED82E1601201A310A2B012D813E814F
:103F5000421A530A57FE03C051944194510871010B
:103F600037FE03C03FEFE31AF30AF594E7948D811F
:103F70009E81861797075CF5A1E0B0E0BA83A9831C
:103F8000C016D1064CF1D301ED91FC910484F58566
:103F9000E02D2B813C81A8016D817E818A149B04D8
:103FA0001CF04D815E81B801C3010995E418F50844
:103FB000F7FE0AC02D813E8189819A81280F391F21
:103FC0003E832D83E20CF31C0F5F1F4FD9CF2FEFE1
:103FD0003FEF3A832983D4CF26960FB6F894DEBFFD
:103FE0000FBECDBFDF91CF911F910F91FF90EF904A
:103FF000DF90CF90BF90AF909F908F907F906F9009
:104000005F904F903F902F90089508952091AE01BA
:10401000260F3327331F21323105ECF42091D201D2
:10402000FC0190E080E0243069F082E00895A091E6
:10403000AE012191AC0142575E4FA40FB52FB11DC7
:104040002C930196861798F38091AE01680F6093C8
:10405000AE0180E0089581E008959B01AC0160E02D
:1040600074E284EF90E00E94C32E2051310941098F
:10407000510956954795379527952093B80008958F
:104080001092D20181E08093D4011092D30161E0BB
:1040900082E10E94621461E083E10E946214E9EB14
:1040A000F0E080818E7F808380818D7F808388E4B3
:1040B0008093B80085E48093BC000895CF93DF938C
:1040C00091E090938D018823B9F0C091B800D09110
:1040D000BA008091BC008A7B8093BC0060E082E1E2
:1040E0000E94621460E083E10E9462140E944020FA
:1040F000D093BA00C093B800DF91CF910895E091BA
:10410000070280910602E81730F4F0E0E859FE4F0C
:10411000808190E008958FEF9FEF089590910702BE
:10412000809106022FEF3FEF981748F4E92FF0E057
:10413000E859FE4F208130E09F5F90930702C9014C
:1041400008958091060290910702891B990B0895AA
:10415000CF92DF92EF92FF920F931F93CF93DF9353
:104160007C01CB018A0120912202222389F0EB01FC
:104170006B01C40ED51ECC15DD0569F06991D70120
:10418000ED91FC910190F081E02DC7010995F3CFED
:10419000642F0E940620C801DF91CF911F910F91DB
:1041A000FF90EF90DF90CF900895CF93DF931F9211
:1041B000CDB7DEB76983209122022223F9F0209146
:1041C0001F02203258F021E030E0FC0133832283CB
:1041D00090E080E00F90DF91CF91089580912002D0
:1041E000E82FF0E0E85BFE4F998190838F5F80932A
:1041F000200280931F0281E090E0ECCF61E0CE01CD
:1042000001960E940620F7CFCF92DF92EF92FF92A5
:104210000F931F93CF93DF93D0911F0281E0D13290
:1042200008F09CC0C09121020E944B176B017C01D9
:104230008091D20181116CC082E08093D20181E033
:104240008093D4018FEF8093D1011092F601D09327
:10425000F501A8E4B1E0E5EDF1E080E0D8138DC010
:104260001092F7018091F701CC0FC82BC093F70192
:104270008091D301813009F084C01092D3010E9453
:104280004B176B017C018091F7018093BB008091FB
:10429000890190918A01A0918B01B0918C01892BA9
:1042A0008A2B8B2BA1F00E944B1700918901109152
:1042B0008A0120918B0130918C016C197D098E0946
:1042C0009F09061717072807390708F442C080918D
:1042D000BC0083FDD8CF85EC8093BC000E944B17B7
:1042E0006B017C018091D201823009F44CC0809135
:1042F000D1018F3F09F469C08091D101803209F466
:1043000066C08091D101803309F463C084E026C087
:104310008091890190918A01A0918B01B0918C01CB
:10432000892B8A2B8B2B09F483CF0E944B1700918A
:10433000890110918A0120918B0130918C016C19B7
:104340007D098E099F09061717072807390708F006
:104350006FCF809188010E945E2085E0109220023C
:1043600010921F0210922202DF91CF911F910F91A4
:10437000FF90EF90DF90CF9008959D9191938F5F84
:104380006DCF85EEA9CF8091890190918A01A0918E
:104390008B01B0918C01892B8A2B8B2B09F4A2CF36
:1043A0000E944B170091890110918A0120918B0185
:1043B00030918C016C197D098E099F09061717072A
:1043C0002807390708F08ECFC4CF80E0C7CF82E03E
:1043D000C5CF83E0C3CFEF92FF920F931F93CF938C
:1043E000DF937C01C62F80914C0290914D02009783
:1043F00009F459C02091500231E0309322022093F9
:1044000021021092200210921F02DC01ED91FC911A
:104410000190F081E02D60E009958701EE24E3949E
:10442000F12CD1E0C15080914C0290914D02CF3FD0
:1044300091F1B0E2EB16F104D8F00E9404218091D2
:104440004C0290914D0220915002D0932202209371
:1044500021021092200210921F02DC01ED91FC91CA
:104460000190F081E02D60E00995EE24E394F12CB9
:1044700080914C0290914D02F8016491DC01ED9124
:10448000FC910190F081E02D0995BFEFEB1AFB0A3A
:104490000F5F1F4FC7CFDF91CF911F910F91FF90FB
:1044A000EF900C940421E0915C02F0915D02908108
:1044B000809162028095892380838701C15008F42E
:1044C00038C0F801849120914A0230914B02232B8D
:1044D00029F00E94061A0F5F1F4FF0CF28E030E04E
:1044E00040E8E0915802F091590290916002582FF3
:1044F0005423D9F05081952B9083E0915A02F0918A
:104500005B02908150916102952B9083E0915A0259
:10451000F0915B0250819091610290959523908378
:10452000469521503109E9F6D6CF508190959523D3
:10453000E3CFDF91CF911F910F91FF90EF900895FE
:104540001F93CF93DF93EC018D8D9E8D009721F10A
:10455000162F29A131E030932202209321021092DC
:10456000200210921F02DC01ED91FC910190F0817C
:10457000E02D60E009958D8D9E8DDC01ED91FC9123
:104580000190F081E02D612F09958D8D9E8DDF9139
:10459000CF911F910C940421ADA5BEA59C918BA930
:1045A000809589238C938B8D9C8D892B31F0862F60
:1045B000DF91CF911F910C94061A28E030E080E83B
:1045C000A9A5BAA599A9462F4823C1F04C91942BCF
:1045D0009C93ABA5BCA59C914AA9942B9C93ABA59D
:1045E000BCA54C919AA9909594239C9386952150B3
:1045F000310931F7DF91CF911F9108954C9190953A
:104600009423E6CFDF92EF92FF920F931F93CF9305
:10461000DF9380914C0290914D02892B09F48AC05E
:1046200060916402709165028091660290916702C8
:104630000E942D2065E084EB97E20E94EB216091BF
:10464000330261508FE292E00E94A0222091350255
:1046500030913602C901079697FD079623E095959C
:1046600087952A95E1F72091330230913402829F99
:104670008001839F100D929F100D1124C0914E0256
:10468000D0914F0280914C0290914D020C0F1D1F52
:10469000009709F480C02091500231E0309322024B
:1046A000209321021092200210921F02DC01ED9152
:1046B000FC910190F081E02D60E40995EE24E394F3
:1046C000F12CDD24D39480914C0290914D020C1773
:1046D0001D0709F446C0B0E2EB16F104D8F00E94C1
:1046E000042180914C0290914D0220915002D09271
:1046F0002202209321021092200210921F02DC015C
:10470000ED91FC910190F081E02D60E40995EE249B
:10471000E394F12C80914C0290914D026991DC015F
:10472000ED91FC910190F081E02D0995BFEFEB1A1E
:10473000FB0AC9CF80914A0290914B02892B31F03C
:1047400080916D0290916E020E940D1AE0915E02BE
:10475000F0915F029081809163028095892380832C
:1047600069CF0E94042180914C0290914D02892BC7
:1047700009F452C0609168027091690280916A02E6
:1047800090916B02DF91CF911F910F91FF90EF906D
:10479000DF900C942D20E0915C02F0915D0280810D
:1047A00090916202892B80830C171D07E1F2899199
:1047B00020914A0230914B02232B19F00E94061AD5
:1047C000F3CF28E030E040E8E0915802F091590240
:1047D00090916002582F5423D9F05081952B9083EB
:1047E000E0915A02F0915B02908150916102952B09
:1047F0009083E0915A02F0915B02508190916102A6
:10480000909595239083469521503109E9F6CCCFB8
:10481000508190959523E3CFE0915E02F0915F0285
:10482000808190916302892B8083DF91CF911F91CA
:104830000F91FF90EF90DF9008951F93CF93DF9338
:10484000EC01162F8D8D9E8D892BC9F06DA97EA947
:104850008FA998AD0E942D2066EA111167EACE015A
:104860000E94A0228D8D9E8D892BC9F069AD7AADF5
:104870008BAD9CADDF91CF911F910C942D208B8D32
:104880009C8D892B21F08EAD9FAD0E940D1AEFA556
:10489000F8A990818CA9809589238083DDCFEFA52D
:1048A000F8A980819CA9892B8083DF91CF911F91EA
:1048B000089590E080E00895CF92DF92EF92FF920A
:1048C0006B01770FEE08FF08009721F0B701A601F2
:1048D0000E94ED14C701B6010E94701783E0FF909B
:1048E000EF90DF90CF900C949014CF92DF92EF92E4
:1048F000FF924FEF50E060E070E081E094E00E94B2
:10490000ED1464E170E080E090E00E94701784E6AE
:10491000C82ED12CE12CF12CB701A6018AE298E037
:104920000E94ED1463E070E080E090E00E94701758
:1049300083E0C81AD108E108F1088EEFC8168FEF9E
:10494000D806E806F80641F7FF90EF90DF90CF9089
:10495000089564E670E088E891E00E945C2464E6D3
:1049600070E08DE591E00E945C2464E670E086E2F0
:1049700091E00E945C2468EC70E086E091E00C9489
:104980005C248F929F92AF92BF920F931F93CF930D
:10499000DF93CDB7DEB7A1970FB6F894DEBF0FBE99
:1049A000CDBF19A2423008F44AE08E010F5D1F4FBF
:1049B000842E912CB12CA12CA50194010E94C32E10
:1049C000E62FB901CA01EA3044F5E05DD801EE9363
:1049D0008D01232B242B252B79F790E080E0109775
:1049E00069F0FD0101900020E9F73197AF014A1B02
:1049F0005B0BBD018FE292E00E940C14A1960FB6F2
:104A0000F894DEBF0FBECDBFDF91CF911F910F9104
:104A1000BF90AF909F908F900895E95CD7CF209181
:104A2000350230913602C901079697FD079623E0BB
:104A3000959587952A95E1F72091330230913402BC
:104A4000829FA001839F500D929F500D112470E012
:104A500060E080914E0290914F020C94FA300E94D7
:104A6000EC3085ED8093BC008091890190918A01A2
:104A7000A0918B01B0918C010796A11DB11D23E07F
:104A8000B695A795979587952A95D1F72091BC0063
:104A900024FD03C01092D2010895409189015091E4
:104AA0008A0160918B0170918C01452B462B472B1D
:104AB00069F30097A105B10541F025E32A95F1F7C7
:104AC00000000197A109B109E1CF809188010C9400
:104AD0005E20CF92DF92EF92FF920F931F93CF93BE
:104AE000DF93CDB7DEB762970FB6F894DEBF0FBE87
:104AF000CDBF0E940F2581E0809343028093440242
:104B000081E090E0909342028093410290934002B2
:104B100080933F024AE0CE0101966C01BC01809176
:104B20000001909101010E949A2CF6010190002051
:104B3000E9F731977F01EC18FD08B7016F5F7F4FF0
:104B400090E080E00E942F308C01009709F44BC068
:104B5000FC011082B6010E9401318FE08E9D900110
:104B60008F9D300D112480E490E0821B930B909375
:104B70003C0280933B028BE290E090933E02809354
:104B80003D02C0900001D09001010D2C000CEE08F8
:104B9000FF084AE0C701B601F7FE0DC06DE28FE2E3
:104BA00092E00E944B1C66277727CB016C197D0988
:104BB0008E099F094AE00E94C1240E940223011528
:104BC0001105A1F0C80162960FB6F894DEBF0FBEC2
:104BD000CDBFDF91CF911F910F91FF90EF90DF90AC
:104BE000CF900C94A62FF12CE12CB7CF62960FB684
:104BF000F894DEBF0FBECDBFDF91CF911F910F9113
:104C0000FF90EF90DF90CF9008951F920F920FB614
:104C10000F9211242F933F934F935F936F937F9342
:104C20008F939F93AF93BF93EF93FF938091130262
:104C300090911402A0911502B0911602892B8A2B33
:104C40008B2BD1F190910E02E0910F02F0911002A6
:104C50008081892780838091130290911402A09112
:104C60001502B0911602181619061A061B069CF4B6
:104C70008091130290911402A0911502B091160236
:104C80000197A109B1098093130290931402A09394
:104C90001502B0931602FF91EF91BF91AF919F91D2
:104CA0008F917F916F915F914F913F912F910F90D5
:104CB0000FBE0F901F901895809102010E949014D2
:104CC000EACF1F920F920FB60F9211242F933F93AA
:104CD0008F939F93AF93BF938091F9019091FA01C5
:104CE000A091FB01B091FC013091F80123E0230F6A
:104CF0002D3758F50196A11DB11D2093F801809321
:104D0000F9019093FA01A093FB01B093FC0180910B
:104D1000FD019091FE01A091FF01B091000201966A
:104D2000A11DB11D8093FD019093FE01A093FF0191
:104D3000B0930002BF91AF919F918F913F912F91BE
:104D40000F900FBE0F901F90189526E8230F029624
:104D5000A11DB11DD2CF1F920F920FB60F92112439
:104D60002F933F934F935F936F937F938F939F9373
:104D7000AF93BF93EF93FF938091B900887F803604
:104D800009F44AC0F0F5883209F4A7C018F580315B
:104D900009F49BC0B8F4882309F4F9C0883009F4F9
:104DA00094C0FF91EF91BF91AF919F918F917F91AF
:104DB0006F915F914F913F912F910F900FBE0F9088
:104DC0001F901895883109F488C0803251F780937C
:104DD000D10114C0803409F49DC040F48033B9F38C
:104DE0008833F9F68093D10185ECB0C0803509F4A1
:104DF00085C0883509F496C0883499F60E9431251B
:104E0000D0CF883909F48CC038F5883729F050F4B0
:104E1000883611F0803729F683E08093D201109212
:104E2000D00157C0883809F47BC0803919F0803828
:104E300009F0B7CF8091D001803208F071C0E091C5
:104E4000D00181E08E0F8093D0018091BB00F0E013
:104E5000E055FE4F80833DC0803B39F0E0F4803A5E
:104E600009F479C0883A09F09CCF84E08093D2019C
:104E70001092AF011092AE01E0910402F091050290
:104E800009958091AE0181110FC081E08093AE0140
:104E900010928E0109C0803C09F4A6CF883C09F429
:104EA000A3CF883B09F07DCFE091AF0181E08E0F69
:104EB0008093AF01F0E0E257FE4F80818093BB000A
:104EC0009091AF018091AE0129C08091F70180934C
:104ED000BB0085EC8093BC0064CF9091F60180917B
:104EE000F501981758F5E091F60181E08E0F809357
:104EF000F601F0E0EB52FE4F8081E9CFE091F60140
:104F000081E08E0F8093F6018091BB00F0E0EB52C0
:104F1000FE4F80839091F6018091F5019817C8F2B9
:104F200085E8D8CFE091F60181E08E0F8093F601FD
:104F30008091BB00F0E0EB52FE4F80838091D40162
:104F400081115CCF81E08093D30184EA8093BC001F
:104F50001092D20126CF85EC8093BC001092D20132
:104F60008091D001803230F4E091D001F0E0E05542
:104F7000FE4F10826091D00170E0E0910202F0914A
:104F8000030280EB91E009951092D0010ACF1092B4
:104F9000D10134CFCF93DF93C3E2D2E01B821A82D8
:104FA00088EE93E0A0E0B0E08C839D83AE83BF8366
:104FB0008DE091E0998388830E94A31760936F022C
:104FC000709370028093710290937202EFE2F2E0AC
:104FD0001382128220E830E03583248380E490E05D
:104FE000978386833187208793878287168A1586E1
:104FF00014861786168681E0858B848B2FEF3FEF12
:10500000338B228B318B208B878B108E128E118EDF
:105010008FE191E091838083148E138ED68FC58F9C
:1050200010A2178E8FEF84A385A386A387A380A7E2
:1050300080E89AE1A6E0B0E085AB96ABA7ABB0AF55
:1050400080EA96E8A1E0B0E081AF92AFA3AFB4AF41
:1050500080E586AF17AEDF91CF910895789484B53F
:10506000826084BD84B5816084BD85B5826085BD64
:1050700085B5816085BD80916E00816080936E00F2
:1050800010928100809181008260809381008091E4
:105090008100816080938100809180008160809395
:1050A00080008091B10084608093B1008091B00055
:1050B00081608093B00080917A00846080937A0050
:1050C00080917A00826080937A0080917A0081607A
:1050D00080937A0080917A00806880937A001092A1
:1050E000C10061E082E00E94BC1460E084E00E94A4
:1050F000BC1461E088E00E94BC1460E088E00E947B
:1051000062140E94752480910802811131C080913F
:105110004E0290914F02892B09F067C12091350210
:1051200030913602C901079697FD079603E09595E1
:1051300087950A95E1F72091330230913402AC0152
:10514000429FC001439F900D529F900D11240E94D9
:105150000A2F90934F0280934E02892B09F045C18C
:105160000E94A9246CE271E080E090E00E94701738
:1051700093EA292E97E2392E20E0C22E20E0D22E8B
:1051800030E5A32EB12C44E0842E912CE1E7F7E228
:105190008491E5E8F7E2C491F101D491F12CE12C7E
:1051A000DD2399F081110E943914ED2FF0E0EE0F0C
:1051B000FF1FED59F84DA591B4918C91C82391E052
:1051C00080E009F490E0E92EF82E80910D028E1512
:1051D0001F0409F4C2C081E0E114F10409F480E085
:1051E00080930D02C0910001D0910101209721F41C
:1051F00060E088E00E9462142496C230D1050CF46D
:105200005EC3D0930101C09300010E94A317609375
:10521000090270930A0280930B0290930C02809112
:10522000000190910101813591050CF492C0B0927A
:105230000101A0920001D0E0C0E00AE710E0AE0159
:10524000DD0F660B770BC8010E94ED14B801012E2B
:10525000000C880B990B0E94D12C20E030E04AE72B
:1052600055E40E941B2E20E030E04FE753E40E94FB
:105270000C2D0E948D2EEB01075E1F4F61E070E048
:1052800080E090E00E947017063BFFE01F07B9F630
:1052900083E00E94901464E670E080E090E00E9459
:1052A0007017D0E0C0E00AE710E0AE01DD0F660B3A
:1052B000770BC8010E94ED14B801012E000C880B79
:1052C000990B0E94D12C20E030E04AE755E40E947F
:1052D0001B2E20E030E04FE753E40E940C2D0E948B
:1052E0008D2EEB01075E1F4F62E070E080E090E0E2
:1052F0000E9470170E3C2BE01207B9F6AE01DD0FCD
:10530000660B770BC8010E94ED14B801012E000C4A
:10531000880B990B0E94D12C20E030E04AE755E43D
:105320000E941B2E20E030E04FE753E40E940C2D3A
:105330000E948D2EEB010951110962E070E080E0BE
:1053400090E00E9470170A371105C1F683E00E94B1
:1053500090140E9475240E94692560E0EA94EF2869
:1053600009F061E082E00E9462140E94A31700919C
:105370006F02109170022091710230917202061733
:1053800017072807390750F50E94A31768517C4F6B
:105390008F4F9F4F60936F027093700280937102E2
:1053A00090937202809100019091010118161906E4
:1053B000ACF4019790930101809300010E9469254C
:1053C000C0910001D09101011C161D060CF47CC295
:1053D0000E94A92461E088E00E946214C114D104F3
:1053E00009F4D4CE0E940000D1CE0E940F25209156
:1053F0003502309136028091330290913402B90126
:10540000213231050CF431C16054710977FF02C0BB
:105410006F5F7F4F759567958255910997FD01964E
:1054200000E410E022E530E04AE954E295958795E2
:105430000E94F71E82E08093510280914C0290916D
:105440004D02892B09F424C18CE380935002109201
:105450000702109206021092200210921F020E9470
:1054600040208AE094E190930502809304028BE04F
:1054700094E190930302809302028091570287FD8A
:105480001EC061E00E94BC1461E0809157020E943E
:10549000621461E070E080E090E00E94701760E0CC
:1054A000809157020E9462146AE070E080E090E010
:1054B0000E94701761E0809157020E9462148091EF
:1054C0004C0290914D02892B09F4A1C160916402B4
:1054D0007091650280916602909167020E942D2072
:1054E00064E086EB92E20E94EB216091350261500C
:1054F0008FE292E00E94A02264E082EB92E20E949E
:10550000EB218091510264E1813009F460E18FE286
:1055100092E00E94A02264E08EEA92E20E94EB21D7
:105520008FE880936C02809133029091340280382E
:10553000910509F085C18091350290913602803441
:10554000910509F08DC180915102813009F476C135
:105550008FEC80936C02C2E16AED8FE292E00E94D0
:10556000A0226C2F8FE292E00E94A02261E88FE2DD
:1055700092E00E94A02260916C028FE292E00E9471
:10558000A02269ED8FE292E00E94A0228091510258
:1055900061EF813009F462E28FE292E00E94A02282
:1055A00066E088EA92E20E94EB2180914C029091A1
:1055B0004D02892B09F458C160916802709169020B
:1055C00080916A0290916B020E942D206CE271E042
:1055D00080E090E00E94701781E080930802809143
:1055E0004C0290914D02892B09F448C160916402EC
:1055F0007091650280916602909167020E942D2051
:1056000061E88FE292E00E94A02260E08FE292E0E7
:105610000E94A02280914C0290914D02892B09F4A6
:1056200044C1609168027091690280916A02909110
:105630006B020E942D200E940F250E940223809160
:10564000480290914902892B49F480913D02909142
:105650003E02069690933E0280933D028AE597E2D1
:10566000909349028093480283CD6052710977FF7D
:1056700002C06F5F7F4F759567958357910997FDBE
:10568000019600E210E023E730E04AEB52E2CECE92
:1056900061E0809155020E94BC1461E08091560245
:1056A0000E94BC1480915502082E000C990BFC013D
:1056B000E156F84DE491F0E0EE0FFF1FEB56F84D88
:1056C0002591349130935D0220935C02FC01EF57E9
:1056D000F84DE491E093620280915602082E000C8E
:1056E000990BFC01E156F84DE491F0E0EE0FFF1F3D
:1056F000EB56F84DA591B491B0935F02A0935E0272
:10570000FC01EF57F84DE491E09363028C91E82B94
:10571000EC9380914A0290914B02892B09F434C09A
:10572000CFB7F89480910102811127C0E9EAF7E22E
:105730008491EBE8F7E29491E82FF0E0EE0FFF1F81
:10574000E256FD4DA591B491EC91E92321F461E07D
:105750008AE00E94621461E08AE00E94BC148CB569
:1057600080618CBD8CB580648CBD61E08DE00E9451
:10577000BC1461E08BE00E94BC14809101028F5F39
:1057800080930102CFBF79CE61E0809153020E94E5
:10579000BC1461E0809154020E94BC1480915302B9
:1057A000082E000C990BFC01E156F84DE491F0E055
:1057B000EE0FFF1FEB56F84D2591349130935902AF
:1057C00020935802FC01EF57F84DE491E0936002FA
:1057D00080915402082E000C990BFC01E156F84D03
:1057E000E491F0E0EE0FFF1FEB56F84DA591B49158
:1057F000B0935B02A0935A02FC01EF57F84DE4917D
:10580000E09361028C91E095E823EC9336CE809191
:105810004A0290914B02892B31F080916D02909158
:105820006E020E940D1AE0915E02F0915F0290817B
:105830008091630280958923808352CE8FE989CE3F
:105840008036910569F48091350290913602409737
:1058500039F480915102813029F08FEA80936C02F3
:10586000C2E07ACE80E1FACFE0915E02F0915F0271
:10587000808190916302892B8083A8CE80914A0217
:1058800090914B02892B31F080916D0290916E02C4
:105890000E940D1AE0915E02F0915F02908180916A
:1058A0006302809589238083ABCEE0915E02F09104
:1058B0005F02808190916302892B8083BCCE90929D
:1058C000010180920001A1CCCA30D1050CF086CD37
:1058D0004090090250900A0260900B0270900C02F6
:1058E00054EF450E51E0551E611C711C0E94A31718
:1058F000461657066806790608F070CDE4E1EC9F7D
:10590000C001ED9F900D112464E670E088539F4F15
:105910000E945C2463CD8FE191E0909330028093EC
:105920002F0280914E0290914F02009711F00C943B
:10593000A62F0895BB274A3031F4992322F4BDE203
:10594000909581959F4F0C94A62CBB27FB01552762
:10595000AA27880F991FAA1FA41710F0A41B8395CC
:105960005051B9F7A05DAA3308F0A95DA193009743
:1059700079F7B111B1931192CB010C94BF2CDC01DA
:10598000FC01672F71917723E1F7329704C07C9176
:105990006D9370836291AE17BF07C8F30895E894C2
:1059A00009C097FB3EF490958095709561957F4F67
:1059B0008F4F9F4F9923A9F0F92F96E9BB27939515
:1059C000F695879577956795B795F111F8CFFAF425
:1059D000BB0F11F460FF1BC06F5F7F4F8F4F9F4F56
:1059E00016C0882311F096E911C0772321F09EE8B4
:1059F000872F762F05C0662371F096E8862F70E01A
:105A000060E02AF09A95660F771F881FDAF7880FF3
:105A10009695879597F908950E941F2D0C94902DC7
:105A20000E94822D38F00E94892D20F0952311F0DC
:105A30000C94792D0C947F2D11240C94C42D0E946C
:105A4000A12D70F3959FC1F3950F50E0551F629FF4
:105A5000F001729FBB27F00DB11D639FAA27F00DC7
:105A6000B11DAA1F649F6627B00DA11D661F829FEE
:105A70002227B00DA11D621F739FB00DA11D621FD3
:105A8000839FA00D611D221F749F3327A00D611DF0
:105A9000231F849F600D211D822F762F6A2F1124D2
:105AA0009F5750409AF0F1F088234AF0EE0FFF1F05
:105AB000BB1F661F771F881F91505040A9F79E3F5C
:105AC000510580F00C94792D0C94C42D5F3FE4F3C4
:105AD000983ED4F3869577956795B795F795E795B2
